:020000040200F8
:2000000040B80020BDB900028B1B0302A9B90002A9B90002A9B90002A9B90002A9B90002B1
:20002000000000000000000000000000F5B90002A9B90002000000002DBC000245F4000286
:20004000F9BC0002F9BC0002F9BC0002F9BC0002F9BC0002F9BC0002F9BC0002F9BC0002E8
:20006000F9BC0002F9BC0002F9BC0002F9BC0002F9BC0002F9BC0002F9BC0002F9BC0002C8
:20008000F9BC0002F9BC0002F9BC0002F9BC0002F9BC0002F9BC0002F9BC0002F9BC0002A8
:2000A000F9BC0002F9BC0002F9BC0002F9BC0002F9BC0002F9BC0002F9BC0002F9BC000288
:2000C000F9BC0002F9BC0002F9BC0002F9BC0002F9BC0002F9BC0002F9BC0002F9BC000268
:2000E000F9BC0002F9BC0002F9BC0002F9BC0002F9BC0002F9BC0002F9BC0002F9BC000248
:20010000F9BC0002F9BC0002F9BC0002F9BC0002F9BC0002F9BC0002F9BC0002F9BC000227
:20012000F9BC0002F9BC0002F9BC0002F9BC0002F9BC0002F9BC0002F9BC0002F9BC000207
:20014000F9BC0002F9BC0002F9BC0002F9BC0002F9BC0002F9BC0002F9BC0002F9BC0002E7
:20016000F9BC0002F9BC0002F9BC0002F9BC0002F9BC0002F9BC0002F9BC0002F9BC0002C7
:20018000F9BC0002F9BC0002F9BC0002F9BC0002F9BC0002F9BC0002F9BC0002F9BC0002A7
:2001A000F9BC0002F9BC0002F9BC0002F9BC0002F9BC0002F9BC0002F9BC0002F9BC000287
:2001C0009FED0B7B41EC160B9FED0B5B26EE077BBCEEC77BB8EE474B17EE101AA4EE456BA2
:2001E000FCEEC67B17EE900A704700BFAFF30080000000000000F03D000000000000F0413F
:2002000081F0004102E000BF83F0004330B54FEA41044FEA430594EA050F08BF90EA020F0D
:200220001FBF54EA000C55EA020C7FEA645C7FEA655C00F0E2804FEA5454D4EB5555B8BFE3
:200240006D420CDD2C4480EA020281EA030382EA000083EA010180EA020281EA0303362D9A
:2002600088BF30BD11F0004F4FEA01314FF4801C4CEA113102D0404261EB410113F0004F04
:200280004FEA03334CEA133302D0524263EB430394EA050F00F0A780A4F10104D5F1200E42
:2002A0000DDB02FA0EFC22FA05F2801841F1000103FA0EF2801843FA05F359410EE0A5F18A
:2002C00020050EF1200E012A03FA0EFC28BF4CF0020C43FA05F3C01851EBE37101F0004596
:2002E00007D54FF0000EDCF1000C7EEB00006EEB0101B1F5801F1BD3B1F5001F0CD3490810
:200300005FEA30004FEA3C0C04F101044FEA445212F5800F80F09A80BCF1004F08BF5FEAEE
:20032000500C50F1000041EB045141EA050130BD5FEA4C0C404141EB0101013C28BFB1F567
:20034000801FE9D291F0000F04BF01460020B1FA81F308BF2033A3F10B03B3F120020CDA02
:200360000C3208DD02F1140CC2F10C0201FA0CF021FA02F10CE002F11402D8BFC2F1200C16
:2003800001FA02F120FA0CFCDCBF41EA0C019040E41AA2BF01EB0451294330BD6FEA040450
:2003A0001F3C1CDA0C340EDC04F11404C4F1200220FA04F001FA02F340EA030021FA04F3A1
:2003C00045EA030130BDC4F10C04C4F1200220FA02F001FA04F340EA0300294630BD21FABF
:2003E00004F0294630BD94F0000F83F4801306BF81F480110134013D4EE77FEA645C18BF9D
:200400007FEA655C29D094EA050F08BF90EA020F05D054EA000C04BF1946104630BD91EAD6
:20042000030F1EBF0021002030BD5FEA545C05D14000494128BF41F0004130BD14F5800433
:200440003CBF01F5801130BD01F0004545F0FE4141F470014FF0000030BD7FEA645C1ABFAF
:20046000194610467FEA655C1CBF0B46024650EA013406BF52EA033591EA030F41F400219E
:2004800030BD00BF90F0000F04BF0021704730B54FF4806404F132044FF000054FF00001CB
:2004A00050E700BF90F0000F04BF0021704730B54FF4806404F1320410F0004548BF404217
:2004C0004FF000013EE700BF42004FEAE2014FEA31014FEA02701FBF12F07F4393F07F4F91
:2004E00081F06051704732F07F4208BF704793F07F4F04BF41F40021704730B54FF46074A5
:2005000001F0004521F000411CE700BF50EA010208BF704730B54FF000050AE050EA010286
:2005200008BF704730B511F0004502D5404261EB41014FF4806404F132045FEA915C3FF470
:20054000D8AE4FF003025FEADC0C18BF03325FEADC0C18BF033202EBDC02C2F1200300FABC
:2005600003FC20FA02F001FA03FE40EA0E0021FA02F11444BDE600BF7BB972B90029BEBF6F
:2005800000204FF0004106E008BF00281CBF6FF000414FF0FF3000F057B8ADF1080C6DE9F6
:2005A00004CE002909DB002B1ADB00F081F8DDF804E0DDE9022304B07047404261EB4101B4
:2005C000002B1BDB00F074F8DDF804E0DDE9022304B0404261EB4101524263EB4303704757
:2005E000524263EB430300F063F8DDF804E0DDE9022304B0404261EB41017047524263EB87
:20060000430300F055F8DDF804E0DDE9022304B0524263EB4303704753B94AB9002908BF21
:2006200000281CBF4FF0FF314FF0FF3000F00CB8ADF1080C6DE904CE00F03AF8DDF804E071
:20064000DDE9022304B07047704700BF10F8012B11F8013B012A28BF9A42F7D0D01A7047FF
:20066000034611F8012B03F8012B002AF9D17047034613F8012B002AFBD1181A0138704792
:20068000024608B50B4643EC172BB5EEC07BF1EE10FA03D4BDE80840FFF792BDB1EE477B62
:2006A00051EC170BFFF78CFD404261EB410108BD2DE9F0478C468E46089E154604461946EA
:2006C000002B40F0D080724547D9B2FA82F74FB1C7F120030EFA07FCBD40BC4020FA03F384
:2006E00043EA0C0C4FEA154EA8B2230CBCFBFEF80EFB18CC08FB00F943EA0C43994528D99F
:20070000EB1808F1FF3204D2994502D9A8F102022B44A3EB0903A4B2B3FBFEFC0EFB1C3321
:200720000CFB00F044EA0344A04214D92C190CF1FF3304D2A04202D9ACF102032C44241A27
:2007400043EA02401EB1FC40002334607360BDE8F0874246DDE76346F1E7002A79D0B2FA8D
:2007600082F3002B3FD01946C1F1200302FA01F500FA01F42EFA03F20EFA01FE20FA03F381
:20078000AFB243EA0E034FEA154EB2FBFEFC0EFB1C201A0C0CFB07F842EA004290455AD990
:2007A000AA180CF1FF3004D2904502D9ACF102002A44A2EB08029BB2B2FBFEFC0EFB1C22E6
:2007C0000CFB07F743EA02439F4246D9EB180CF1FF3204D29F4202D9ACF102022B44DB1BD9
:2007E00042EA004202E0AEEB020301224FEA154EAFB2200CB3FBFEFC0EFB1C330CFB07F8B9
:2008000040EA034398452AD9EB180CF1FF3004D2984502D9ACF102002B44A3EB0803A4B2CE
:20082000B3FBFEFC0EFB1C330CFB07F744EA0344A74216D92C190CF1FF3304D2A74202D958
:20084000ACF102032C44E41B43EA00400F46114678E71F2188E76046ABE76246BFE7604634
:20086000DBE76346EFE7734506D916B9002108466DE7C6E9000EF9E7B3FA83F787B9734552
:2008800001D3824207D8841A6EEB030301209C461EB900215BE73846FAE7C6E9004CF8E76E
:2008A000C7F1200CBB4000FA07F422FA0CF520FA0CF1BA401D432EFA0CF30EFA07FE4FEA69
:2008C000154941EA0E011FFA85FEB3FBF9F809FB18300B0C08FB0EFA43EA00439A4540D96F
:2008E000EB1808F1FF3004D29A4502D9A8F102002B44A3EB0A0389B2B3FBF9F809FB18336F
:2009000008FB0EFE41EA03418E452CD9691808F1FF3304D28E4502D9A8F10203294443EA19
:200920000040A1EB0E01A0FB02984145CE46434602D306D14C4504D20138B9EB020E68EB31
:200940000503002EA5D0B4EB0E0261EB030101FA0CFC22FA07F3F9404CEA0303C6E900317F
:2009600097E74046C5E74346D9E7000000000000B5EE401BF1EE10FA10B504462DED048BDF
:20098000B0EE408BB0EE419B0FD118EE903A9FED147B9FED156B002B27FE067B032384ED35
:2009A000007BA360BDEC048B10BD2FF0A1FDB5EE400B38EE408BF1EE10FA88EE097BEDD078
:2009C00019EE903A10EE902ADB0FD20F9A42E5D0B7EE006B37EE467BE0E700BFAFF3008094
:2009E000000000000000F07F000000000000F0FF2DE9F04F2DED108B14460A680E461168F6
:200A00008DB0B0EE408BDDE926BADDE928981D469DF9A8701269A1B99AB14DF0DEFAA64ACE
:200A2000A64B039256220593A54BCDE901320493A44B0246009303200B462FF097FE4DF081
:200A4000C9FACDE90A120CAB13E906002B9B18684BF0A7FD60B14DF0C0FA9B4A9B4B0392BB
:200A6000752205939A4BCDE901320493994BE0E77A1ED2B2012A13D94DF0AFFA964A974B5C
:200A8000039226220593964B06970493CDE90132904B0246009303200B462FF067FECEE780
:200AA000316891F91C20BA4217D04DF096FA079733688C4A93F91C3003922C2206938A4BEF
:200AC0000593874BCDE901320493824B0246009303200B462FF04AFEB1E75C4575EB0A0204
:200AE00016DA4DF07AFA814A814B039233220593CDE908BA7A4BCDE906450493CDE901327E
:200B0000744B0246009303200B462FF02FFE96E7A14578EB05020DDA4DF05FFA754B764AB1
:200B200005936F4B0392CDE908983822CDE906450493E3E72B9B186890F91C20062A0ED0A3
:200B40004DF04BFA2B9B6D4A1B6893F91C30039206936B4B3F220593614B049396E7012F6E
:200B60000BBF6FF07F06674E7F2547F6FF75F217B3457AEB020215DA4DF02FFA624A634BA4
:200B800003924E220593CDE908BA554B06960493CDE901324F4B0246009303200B462FF07C
:200BA000E5FD4CE7EA174D4572EB08020CDA4DF014FA574B574A0593494B0392CDE908989B
:200BC000552206950493E3E7B7EEC80B10EE103A012F4A69A4EE103BC668C96840F09C8077
:200BE00022F00F0501EB050CACEE304B35469FED2EEB9FED2FFBACEB0100000913090130F9
:200C0000013814D122F00F00111A904206EB8313ACEB000501F1010100D802B90121013992
:200C200036D12B980DB0BDEC108BBDE8F08F0F4697FC0E6EA8EE462FA8EE467F12FF4C2876
:200C400016FF4C68B0EE42AFB0EE468FBBFF4AA6B0EE423FB0EE467FAE46BBFF4226BBFFCD
:200C60004886BBFF46660AFF54AD02FF542DAEEC04BF08FF548D06FF546D8EED003F1031AE
:200C800085ED089F85ED0C7F05F1300E4035B7E72A560130121B07EE902AF8EEE77A67EECE
:200CA000807AE3EC017ABAE70008040C0109050D020A060E030B070FA0700502C470050285
:200CC000E3700502EC7005023A830502188305027F8305029983050204840502B6830502F6
:200CE000EE8305027684050259840502E7840502CF840502378505024F850502C6850502DB
:200D00009F8505020080FFFF3386050210860502AB860502CE860502D008D51DA2EE104B85
:200D20008C4633469FED228B9FED239B00F1010000D202B9012001381DD122F00705D30825
:200D400002F00700954201EB031100F1010006EB431300D802B9012001383FF462AF31F92F
:200D6000022B121B07EE902AF8EEE77A67EE807AE3EC017AF0E7654695FC996EB0EE46AFDD
:200D8000B0EE467F2AFF42A826FF4268BBFF4AA61D460AFF54ADBBFF4666A5EC04BF06FF38
:200DA000546D0CF1100C85ED007F2033C3E700BF0000040001000500020006000300070090
:200DC0002DE9F04F2DED108B0B6817461A68A7B08846DDE9404BDDE9425AB0EE408B9DF9E0
:200DE0001091459E1B69A2B99BB14DF0F6F8B84AB84B039256220593B74BCDE901320493ED
:200E0000B64B0246009303200B462FF0AFFC4DF0E1F8CDE9242326AB306813E906004BF0FF
:200E2000C0FB60B14DF0D9F8AD4AAE4B039272220593AD4BCDE901320493AC4BE1E7D8F820
:200E4000002092F91C30062B17D04DF0C6F8D8F80030A74A93F91C30039227220693A54B58
:200E60000593A54B0493CDE90132A04B0246009303200B462FF07AFCC9E709F1FF33DBB232
:200E8000012B0BD94DF0A9F89C4B9D4A05939A4B0392CDF818902D220493E4E7316891F943
:200EA0001C304B4518D04DF098F8CDF81C903368944A93F91C30039231220693924B0593E9
:200EC0008D4BCDE901320493884B0246009303200B462FF04BFC9AE7B9F1010F0BBF6FF0CE
:200EE0007F038A4B4FF07F0847F6FF78D8179C427BEB000017DA0B934DF06FF8844A0B9B47
:200F0000039241220693834BCDE9084B05937A4B0493CDE90132754B0246009303200B467D
:200F20002FF024FC73E74FEAE873A84573EB0A030DDA4DF052F8784B784A05936E4B039253
:200F4000CDE9085A4822CDF818800493E1E7B7EEC88BF7EE007AC7EE887AD2F80CE05369D3
:200F6000CA6817EE901AC7F1964000F58000B9F1010FCDED0B7AA2EE101BA6EE100B684979
:200F800040F0D080A0EE304B8DEDA81EA0EE305BF4468DEDB01E23F00F001044A4EE101BBA
:200FA000811A09094FEA13180131013914D123F00F015A1A99420EEB881EA0EB010002F13F
:200FC000010200D803B90122013A62D1304627B0BDEC108BBDE8F08FE1469CED0CDFB9ECF4
:200FE00004BF8DED1CDF24EF54C199ED009F0AEF52CC24EF54A19CED081F08EF52AC24EF95
:20100000548100EF528C2CFF46C88DED209F24EF54019DED1C9F2AFF46A808EF520C35FE70
:201020008DEE9DED209F35FE8BFE28FF46889DED98BE20FF460835FE89AE35FE81BE9DED88
:20104000A81E1EEF40869DEDB01E8DED98BE18EF50862AEF5A019DEDA8BE10EF4A069DEDB5
:20106000B0BE10EF5A069DED40BE31FE89AE31FE81BE9FED130B9FED141B0DF130098DED31
:2010800040BE0DF1400982EC00AE0CF1400C10328BE7FEEC017A9DED0B7A67EE277AF6EEA4
:2010A000677AFDEEE77A17EE903A3B44A342B8BF2346AB42A8BF2B464354013184E700BF38
:2010C0000008040C0109050D020A060E030B070FA0700502C4700502E3700502EC70050289
:2010E0007F8A050218830502C48A0502DC8A0502348B0502F78A0502208B0502B68305023C
:2011000004840502A08B0502858B05020080FFFF3386050210860502AB860502CE86050289
:201120000000404BA8EE101BD90801F1010AD91DAAEE104BACEE105B9446F14600D20BB9F0
:201140004FF0010ABAF1010A27D123F0070CD80803F007019C4502EB001201F101010EEBC9
:20116000401000D803B9012101393FF42FAFF0EC017A9DED0B7A67EE277AF6EE677AFDEE12
:20118000E77A17EE903A3B44A342B8BF2346AB42A8BF2B4622F8023BE6E7C84628EF580174
:2011A000B8EC045F98ED00FF04EF520C28EF58410EEF524C20FF460824FF464820EF4A068B
:2011C00024EF4A466146604620EF5C0624EF5C46083188ED000F09F1200989ED004F0CF157
:2011E000100CAFE7000000002DE9F04F2DED068BA7B0CDE90801B64FDFF820A34FF0FF3218
:201200004FF0FF33089814A923F08EF904460028F4D13B68149A9A4214D04CF0DEFE0B46B5
:20122000396802460591149902200491A949039140F2C3110291A8490191A84900912FF088
:2012400095FADBE7A64B1E680EF0CEF923460546149A9A4230D80EF0C7F90EF0C5F94FF4FE
:201260007A73401BB0FBF3F018909E4823F0BEFA0EF0BAF99C4E1990346894F850002FF064
:201280007BFB204627F0B2FA04460EF0ADF905461A90C4B14CF0A1FE0B4694490246039172
:2012A0004FF4ED71049402918B49022001918B4900912FF05BFAA1E7159AD25C1AF8022068
:2012C000F2540133C4E73468199B894E94F8500007932FF051FBD6E90012521A204612111B
:2012E00028F076FC044648B14CF077FE0B46814902460391049440F2E111D4E7D6E9003211
:20130000934202D09A68012A2BD04CF066FE0B46794902460391CC2102917849022001917A
:201320006E4900912FF022FA0EF05EF9744B1FAC1C93079B1B90ED1A724BB5FBF3F50523CB
:201340001D9516AD8DF878300FCD0FC495E8030084E803000022002309981CA947F0DCF897
:201360004CE7D3F80090142201460AA899F91C60D9F8148051F037F8634A9FED648A0F9205
:201380001092119212921392224690453DD19FED4C9B4FF0000BDFED5E8AA0455D4A40F047
:2013A000EC801CAEB04605249FED47AB0DF13C0BBBEC010A30EE480AB7EEC00A00F0F8FCA0
:2013C00080EE097B013CA8EC027B3AEE07ABEFD105214B4B5048DFF848E10AAAB6EC026B1C
:2013E00086EE0A7B8446B7EEC77B52F8044B83ED027AB4F57A7F38BF5EF824C00139C3E905
:20140000004C03F10C03E9D18EE7062E00F28A80DFE806F04C3B883288880400D9F80C101F
:2014200001EB8201D1ED007A002A00F09380B4EEE78AF1EE10FA48BFB0EE678A0021052000
:201440000DF13C0CBCEC017AF4EEC77AF1EE10FA40F38D8004200DF14C0C0DF1380EC1F167
:201460000501013979D126AB03EB800040ED177A40F8702C013288E7D9F80C1001EB820311
:20148000D3ED007AF8EEE77ACEE7D9F80C108B5607EE903AF8EEE77A9FED1D7A1D4977EE54
:2014A000C77A91ED007A67EE877ABDE7D9F80C108B5C07EE903AF8EE677AEDE7AFF30080A9
:2014C00000000000000000008DEDB5A0F7C6B03E44D511224BA9050276A905027EA90502F7
:2014E00048D511222C14002278D5112290A905024CD51122A7A90502C0A90502D7A90502D8
:2015000000D5112240420F00286B6ECE000000000000FE4240D5112249A90502E13B122292
:20152000603D05024CF059FDF6B21E2E0B4696BF2F49304951F82610024604912E490220F5
:201540000391F12102912D4901912D4900912FF00DF9E9E6B0EE678A70E75CF804BD5EF8FE
:20156000043D0138CCF804B0CEF8043079E7013801F101017FF466AF7CE7062E34D8DFE800
:2015800006F02B1D331433330400D9F80C1001EB840191ED000A30EE480AB7EEC00A00F0A7
:2015A00007FC013439EE009BF7E6D9F80C1001EB840393ED000AB8EEC00AECE7D9F80C103A
:2015C0000B5700EE103AB8EEC00A30EE680AD2ED007A20EE270ADEE7D9F80C100B5D00EEF1
:2015E000103AB8EE400AF0E700EE10BAD3E700BFC83C050298770502E1A90502D7A9050270
:201600007EA90502000000002DE9F04F0029D0F81080446889B005DD6FF01507384609B04D
:20162000BDE8F08FD8F80030D4E90069002B4BD1A389A5680593B368494630465B6806AAB5
:201640009847071EEADBDDE9067BA5FB072305FB0B334FF0FF3A03920293DDE902102EA327
:20166000D3E90023FEF7D8FF039B029A9A452C4B0490934102D26FF08507CFE76B08A3FB41
:20168000075703FB0B7724A3D3E9002328463946FEF7C2FF224AAA45BA410346EBD3049A28
:2016A0008242B9D30599B2683046009149461568049AA84707460028B0D1208A46F07EFE30
:2016C000012388F80430A9E7B368494630465B6806AA984707460028A0D10346DDE9060134
:2016E000D8F80020FEF798FF1A4304D002210D4A0D4830F06EF9DDE90601D8F80020002307
:20170000FEF78AFFA5890246D4E90001836800951D685308CDE700BF00CA9A3B00000000A5
:20172000FFC99A3B59E1050268360502000000002DE9F74F0C9C002BD0E9065A9046D0E94F
:2017400004B024FA03F405F103025844894605F10205019308BF154619A3D3E90023A0FB71
:201760000401FEF759FF09EB000707EB4507B4FBF7F30D9EA4FB0B01336011A3D3E90023C9
:20178000FEF74AFF08EB00032B44B3FBF7F364225343019AA3EB0A01B260A9EB0802534576
:2017A000F260AAEB0302736094BF13460B46B3FBFAF3C6F81080736103B0BDE8F08F00BF1A
:2017C00000CA9A3B000000002DE9F04FA5B08A46836902AF3B6207F14004C3697A61064627
:2017E000182200212046FB6150F0FDFD864B9A4505D0864B9A4502D0854B9A454FD17068E4
:2018000006F108018368DB68002B00F0F58007F13C0298478146002857D1CB463B6A0133F4
:201820007B635B003B61FB6B3B6301943B6B00937A6B034639693046FFF77AFFBB6C7B604A
:20184000FB6CFB603B6DBB603B6A0333BB613B6B0AF1FF3423FA0BF0D6E9041319440444A5
:2018600067A3D3E90023A1FB0001FEF7D5FEB4FBFAF4BB69241AA4EB43043E2C02D83B695D
:20188000A34231D90BF1010BBBF1080F22D17B69FA689A70BA685A707A681A7015E06C464C
:2018A0008AB002AA5B4B4FF4115153615A4B5B48C2E9063A4FF400731384594B6FF01509A2
:2018C00042F8103F31F050F8A54648468C37BD46BDE8F08F3B6ABBF1010F03F10203BA6936
:2018E00008BF1A46BA61B2E7FB69214604FB03F56423B5FBF3F57B6B30469D4238BF1D4697
:2019000007F1580301933B6B2A4600935B46FFF70FFFFB6DD7F86C80FB627B6E7B62BB6E23
:20192000BB62FB69FA6A93420ED3FB69FA6A934235D8D7E9092313431F2BA3D83B6EFA6058
:201940007B60BB6ABB60A2E77B6B013DAB42ECD8631B1F2BE9D807F1700301933B6B2A4670
:20196000009321465B463046FFF7E2FED7F884E0F045DAD907F1580C07F17008B8E80F00EA
:20198000ACE80F0098E803007B6FF046FB62FB6F8CE803007B62D7F88030BB62C1E701356C
:2019A000AC42C6D31F2DC4D87A6B631B9A42C0D807F1700301933B6B2A46009321465B4631
:2019C0003046FFF7B5FED7F884E0F045B1D907F1580C07F17008B8E80F00ACE80F0098E858
:2019E00003007B6FF046FB62FB6F8CE803007B62D7F88030BB6298E76FF0570965E700BFC4
:201A000000CA9A3B00000000801A060040420F00A0860100DEE80502BD2A060210370502C5
:201A2000040000010000000070B52DED048BAC4B0569994282B02CD8073B9942A1F5180191
:201A400006D8A1F51063032B18D96FF08500AEE0A1F612110629F8D801A353F821F000BF96
:201A60001D1C00024B1A00025B1C00027B1C00024B1A00024B1A00028D1C00026FF4106363
:201A800019444468022900F29680DFE801F0B1791200944B9942D8D1D5F80833924A9349F3
:201AA000D25C406802B0BDEC048BBDE870400DF0C3BE012320461A468D49D5F8785131F01C
:201AC00025F9002873D107EE905A9FED7F6BB8EEE77B27EE067B9FED7E6B87EE069BB0EE60
:201AE000490B00F025F99FED7C8B20EE080BB8FE400BFDEEC07BB0EE490B17EE906A00F0C8
:201B00009FFB20EE080BB8FE400B592DBDEEC00B32D9A5F15A03592B30D9A5F58773592B6A
:201B20008CBF00230123A5F1B402592A4FEA430398BF322345F28152ADF8002086EAE67282
:201B4000A2EBE6728DF8022045F28252ADF8042010EE102A002AB8BF52428DF806202046A7
:201B60007F22644931F0D2F8002820DB02226946204631F0DEF81AE00123DBE73123D9E7E5
:201B800045F28352D5F8C831ADF80020DBB245F284528DF802308DF806304123ADF8042075
:201BA00020461A46534931F0B1F80028DED002B0BDEC048B70BD042320461A464C49D5F8BD
:201BC000D85031F0A3F80028F1D1EB0F082220464849DB0031F09AF80028E8DB85EAE572DD
:201BE000A2EBE5721201444902F0F002204659E7042320461A463E49D5F8285131F086F87E
:201C00000028D4D1EB0F042220463C499B0031F07DF80028CBDB3949EAB2E7E7AB6B44683F
:201C2000B3FA83F35B090222204635495B0031F06DF80028BBD1AB6B002BB8D1D5F8883031
:201C4000032220462F49C3F3012331F05FF80028ADD195F888202C49C8E7D5F818320622F1
:201C6000002B0CBF062300232849406802B0BDEC048BBDE8704031F049B8D5F86832062219
:201C8000002B14BF062300232149EEE7D5F8B8324468022B16D0032B04D0012B07D06FF0E1
:201CA000150084E70023802220461A49DEE7042304222046184931F029F800287FF477AF3A
:201CC0008023F0E70023F3E750455254FB2109400000000000806640000000000000604027
:201CE0001809980003099F00022B06023D50210080552100885521008755210086552100B0
:201D0000033521000A3521000B3521002138210020382100013C2100003C210000000000FB
:201D2000A0F101000028FBD1704700BF000000007FB58DED000B019B1B4A23F000439342C2
:201D400006D89FED171B07B05DF804EB00F074BB164A934204D907B05DF804EB00F040BBD5
:201D600002A800F031F900F0030001289DED020B9DED041B07D002280AD060B900F05CFB08
:201D800007B05DF804FB00F037FEB1EE400BF7E700F052FBF9E7012000F02EFEF0E700BF5B
:201DA0000000000000000000FB21E93FFFFFEF7F10EE903AF3B423F000467B4FDA0FBE42F8
:201DC0002BD97A4FBE4210D9C3F3130310EE101A0B4304D030EE000B02B0F0BC70479FED6D
:201DE000587B002A00FE070BF6E79FED577BB4EEC70BF1EE10FA04DD002002B0F0BC00F0EF
:201E0000DBBA9FED537BB4EEC70BF1EE10FA43D5002002B0F0BC00F0BBBA654B9E4255D9BD
:201E2000644B9E4238D8644B03EBC20393ED005B624B03EBC20330EE455B93ED007B82F03B
:201E400001039B1A35EE470B20EE006B9FED423B9FED434B16EE034B9FED433B04EE063B29
:201E60009FED434B13EE064B9FED433B04EE063BB0EE404B03EE464BB7EE006BB0EE003B25
:201E800020EE042BABBB34EE434B82EE047B37EE400B36EE400B9FE7494BB0EE405B03EBE0
:201EA000C2039FED376B93ED007B00EE067B9FED366BFDEEC77B17EE903AB8EEE77B07EE9F
:201EC000465B9FED336B27EE067BBBE73D4B9E420DD8B7EE004B9FED306B30EE066BB4EE6A
:201EE000C46BF1EE10FA02DD30EE040B74E70023AAE733EE443B6FF47F7C634582EE034B4B
:201F000037EE447B37EE457B36EE477B8DED007BDDE9007605DB3C4606EB035545EC104BAA
:201F20005AE703F57A7338469FED1D0B06EB035141EC170B27EE000B4EE700BFAFF300807F
:201F40000000000000000000EF39FAFE422E864051302DD5104987C0D0A4BE726937663E20
:201F6000F16BD2C541BDBB3E2CDE25AF6A56113F93BDBE166CC1663F3E5555555555C53FA8
:201F8000FE822B654715F73F0000E0FE422EE63F763C7935EF39EA3D9C7500883CE4377E0F
:201FA0000000000000007001412E8640FFFFEF7F422ED63FB1A2F03F603B0502503B0502D4
:201FC000703B0502FFFFEF3DF0B510EE907A964B89B0064627F00041994207D800220023BB
:201FE00080ED000BC0E9022300201BE08F4B99423BD8A3F51B23002F9FED7B7BA3F5F06346
:2020000019DD994230EE470B0ED09FED796B30EE467B012030EE470B86ED007B30EE460B64
:2020200086ED020B09B0F0BD9FED737B9FED746B30EE470BEBE7994230EE070B0ED09FED1E
:202040006C6B30EE067B4FF0FF3030EE470B86ED007B30EE060B86ED020BE3E79FED667B58
:202060009FED676B30EE070BEBE7714B994269D8B6EE007BB0EEC00B9FED636B00EE067BD7
:20208000FDEEC77BB8EEE75B17EE900A9FED567B1F2805EE470B9FED567B25EE077B30EE93
:2020A000476B05DC421E634B53F822308B4208D116EE903A0A15C3F30A53C3EB1153102BEF
:2020C00002DC86ED006B1AE09FED4B6B25EE066B30EE464B30EE447B37EE467B9FED486BD3
:2020E00015EE067B34EE476B16EE903AC3F30A53D31A312B15DCB0EE440B86ED006B30EE84
:20210000460B002F30EE470B86ED020B8ADAB1EE466BB1EE400B86ED006B86ED020B4042D1
:2021200080E79FED3B7B9FED3C6B25EE077B34EE470B34EE404B34EE477B15EE067B30EE87
:20214000476BBEE73C4B994206D930EE400B80ED020B80ED000B47E70A1510EE103A08A847
:20216000A2F216421C46A1EB0255032145EC174BBDEEC76B9FED2A5BB8EEC66B37EE467BCC
:202180008DED026B27EE057BBDEEC76BB8EEC66B37EE467B8DED046B27EE057B8DED067BB0
:2021A00030ED027B0B460139B5EE407BF1EE10FAF6D0224902A8019102210091314600F02B
:2021C000A3F9002FBFF62EAF96ED007BB1EE477B86ED007B96ED027BB1EE477B86ED027B04
:2021E0009DE700BFAFF3008000004054FB21F93F3163621A61B4D03D0000601A61B4D03DC4
:202200007370032E8A19A33B83C8C96D305FE43F0000002E8A19A33BC14920259A837B3927
:202220000000000000007041FB21E93F7BD90240FB21394184630502FFFFEF7F04640502B4
:202240007FB58DED000B019B1D4A23F00043934207D800209FED181B07B05DF804EB00F0EE
:20226000CBBB184A934204D907B05DF804EB00F0B7B802A8FFF7A8FE00F0030001289DED7E
:20228000020B9DED041B08D0022809D070B9012000F0B2FB07B05DF804FB00F0CDF8F9E726
:2022A000012000F0A9FBB1EE400BF3E700F0C4F8F9E700BFAFF30080000000000000000038
:2022C000FB21E93FFFFFEF7F10EE902A0146C2F30A53104610B4C3B922F0004210EE103A0B
:2022E0001A4318D0284C9FED247BA14220EE070B10EE902AC2F30A531046A3F136030DDA23
:20230000D00F5DF8044B00F043B840F2FF72934204D130EE000B5DF8044B70474CF25032BE
:20232000914204DDC00F5DF8044B00F045B8194440F2FE739942F5DC002908DD6FF31E50FF
:2023400053EC102B40EA015343EC102BE3E711F1350F01DAC00FD4E736316FF31E5053EC30
:20236000102B9FED077B40EA015343EC102B20EE070BD0E7AFF300800000000000005043A0
:20238000000000000000903CB03CFFFF000000009FED050B9FED067B002800FE077B27EE21
:2023A000000B7047AFF30080000000000000100000000000000010809FED050B9FED067BF0
:2023C000002800FE077B27EE000B7047AFF30080FFFFFFFFFFFFEF7FFFFFFFFFFFFFEFFF0C
:2023E00008B52DED028BB0EE408B50F041FA20B138EE080BBDEC028B08BD9FED037B87EE11
:20240000070BF7E7AFF3008000000000000000009FED076BB7EE007B82B037EE067B8DED3A
:20242000007BDDE9002302B0704700BFAFF300800000000000001000B0EE407BB7EE000BD5
:2024400017EE901A21F00041B1F1795F39D327EE075B2B4B994227EE017BB6EE006B9FED01
:202460001C3B9FED1D4B25EE066B05EE034B9FED1C3B14EE053B9FED1C4B03EE054B9FED67
:202480001C3B14EE053B9FED1C4B03EE054B24EE054B14EE057B04D836EE477B30EE470B59
:2024A0007047184B99420DD80022A1F5001343EC152B36EE456B30EE450B36EE476B30EED2
:2024C000460B7047B5EE025BF3E700BFAFF30080D43888BEE9FAA8BDC4B1B4BD9EEE213ECE
:2024E000AD529C804F7E923E9015CB19A001FA3E7751C1166CC1563F4C5555555555A53F88
:202500003233D33F0000E93F2DE9F04F2DED068BADF5137D12F1140F9B460F46BC4B6FF028
:202520001705A2990BF1FF3A0190A8BF182053F82190ACBFD31E0023A39E09EB0A0CA8BFB2
:2025400093FBF0F303FB0555A3EB0A041AA8154406EB840E00229FEDA86B62450EDD1AAA61
:202560000DF5D478002402EBCB024C4523DCDDF804E0944600209FEDA07B15E0D44209D45D
:202580005EF8221007EE901AB8EEE77B0132A0EC027BE2E7B0EE467BF8E7BEEC025B3CED99
:2025A000026B013005EE067B5045F6DD01340832A8EC027BD9E706AA06EB83034C4602EBBB
:2025C000890202939FED8E9B9FED8FAB0392E3006AAA2046049392AB02EBC40203EBC40332
:2025E00013ED280B06AB1E46002849DC28460593FFF76AFEB4EE007BB0EE408B20EE077BCC
:20260000BBFE477B002D059BB2EE006B07EE468BFDEEC87B17EE908AB8EEE77B38EE478B54
:2026200040DD06AA601EC5F1180E52F8201041FA0EF6B04406FA0EF68E1B42F82060C5F1A9
:2026400017021641002E3CDD4FF0000C08F101086FF07F4E604664456BDC002D03DD012D79
:2026600077D0022D7FD0022E2BD1B7EE000B30EE488B30B32846FFF727FE38EE408B20E06B
:2026800020EE097B0138BDEEC77BB8EEC77B07EE4A0BBDEEC00BA6EC010A32ED020B37EEEC
:2026A000000BA1E705D1621E06A850F82260F615C8E7B6EE007BB4EEC78BF1EE10FA36DAF3
:2026C0000026B5EE408BF1EE10FA40F0A580621E00200DF1180C4A454DDA002865D0013C16
:2026E000183D06AA52F82430002B7FD02846B7EE000BFFF7E9FD621C6AA906A8D30001EBC5
:20270000C20122469FED3E6B002A80F2AE8022460DF5847C002AC0F2C7806AA9DFF8F4E044
:20272000002001EBC205A11A9FED337BB2E002268AE753F8042B48B922B1C2F1807243F878
:20274000042C01220CF1010C104684E7AEEB0202F5E704F1FF3C06AA52F82C30C3F316038D
:2027600042F82C307FE704F1FF3C06AA52F82C30C3F31503F4E75CF82230013A1843AAE761
:20278000013352F8040D0028FAD0049A04EB0B0C1AA8661C02F51272234400EBCC006A4489
:2027A000983AB34204DA1C4611E7039A0123E8E702990024DDF804C051F8261007EE901A14
:2027C0000491B8EEE77BA0EC027B9FED0B7B8646544503DD0136A2EC027BE2E7BCEC025BEC
:2027E0003EED026B013405EE067BF1E7013C183D78E700BFAFF300800000000000000000EE
:20280000000000000000703E00000000000070410C650502903B0502B0EE480B6842FFF77E
:2028200053FD06AB9FED6E6BB4EEC60BF1EE10FA16DB18359FED6C7B20EE077BBDEEC77BA8
:20284000B8EEC75B05EE460BBDEEC00B10EE102A43F82420013417EE102A43F8242045E720
:20286000BDEEC00B10EE102AF7E750F82250013A07EE905AB8EEE77B27EE007B20EE060B41
:2028800021ED027B40E7BEEC025BB5EC026B013005EE067B484501DC8842F4DD0CEBC1010E
:2028A000013A81ED007B35E7A29A022A0ADC002A28DC41D008F007000DF5137DBDEC068B80
:2028C000BDE8F08FA29A032AF4D142A8A3F10802254602441146002D4FDC214601295CDCF5
:2028E00003449FED437B012C67DC90ED005B90ED026B002E67D187ED005B87ED026B87ED8B
:20290000047BD7E742A922469FED396B0B44002A24DA4EB3B1EE467B44AA012387ED007B1E
:2029200091ED007B37EE467B9C4220DA0EB1B1EE477B87ED027BBDE742AA9FED2D7B1344B4
:20294000002C05DA0EB1B1EE477B87ED007BB1E733ED026B013C37EE067BF1E733ED027BE0
:20296000013A36EE076BD2E7B0EE467BD4E7B2EC026B013337EE067BD6E731ED027B013D38
:2029800091ED025B37EE056B37EE467B81ED006B37EE057B81ED027B9DE732ED027B01391E
:2029A00092ED025B37EE056B37EE467B82ED006B37EE057B82ED027B90E733ED026B013C14
:2029C00037EE067B8FE7B1EE455BB1EE466BB1EE477B87ED005B87ED026B90E7AFF30080A2
:2029E0000000000000007041000000000000703E0000000000000000B0EE407B17EE903A50
:202A000023F00043B3F1795F01D2FFF701BD20EE005B9FED176B9FED183B20EE054B15EEA6
:202A2000063B9FED176B03EE056B9FED173B16EE053B9FED176B03EE056B40B99FED163B7F
:202A400015EE063B03EE047BB0EE470B704724EE066BB6EE003B11EE036B16EE051B9FED9C
:202A6000106B04EE461B30EE410B7047AFF300807CD5CF5A3AD9E53DEB9C2B8AE6E55A3EF7
:202A80007DFEB157E31DC73ED561C119A0012A3FA6F810111111813F495555555555C53FFD
:202AA000495555555555C5BF7FB54BF096FA094A094B0392E4220593084BCDE901320493F4
:202AC000074B0246009303200B462DF04FFE4BF081FA00BF8A6E0502766E0502816E050296
:202AE000C86E05027FB54BF078FA094A094B039240F22A220593084BCDE901320493074B41
:202B00000246009303200B462DF030FE4BF062FAE66E0502D16E0502D96E0502C86E050258
:202B20007FB58368042B13D04BF057FA0B4A0C4B0392CF2205930B4BCDE9013204930A4BE3
:202B40000246009303200B462DF010FE4BF042FAD0E9000107B05DF804FB00BF2E6F05025C
:202B6000D16E0502286F0502C86E05027FB58368012B14D04BF031FA0A4A0B4B03924FF41D
:202B8000AE720593094BCDE901320493084B0246009303200B462DF0E9FD4BF01BFA07B0FD
:202BA0005DF804FB7E6F05026A6F0502756F0502C86E05022DE9F04F97B016AB0A2A0446EA
:202BC000154603E9060019D04BF007FA0B460A2105912E49024604912D49022003914FF4AE
:202BE0001C7102912B49069501912B4900912DF0BDFD2323A36017B0BDE8F08F149B1868D5
:202C0000D3E901BAD3E90398D3E90576D3E907520D92FFF7ABFF0E905846FFF781FF139006
:202C200050461291FFF7A2FF0F904846FFF778FF814640461091FFF773FF824638468846C0
:202C4000FFF76EFF834630460F46FFF769FF119028460E46FFF78AFF05460D98FFF786FFD2
:202C6000119BCDE90A50CDE90836109BCDE906B7CDE904A8CDF8089003930F9B204600938E
:202C80000E99DDE9123204F0DBFAB4E7BC6F0502CF6F0502007005020B7005022DE9F04F5A
:202CA00097B016AB092A0446154603E9060019D04BF093F90B46092105912C49024604912F
:202CC0002B49022003914FF490710291294906950191294900912DF049FD2323A36017B0DE
:202CE000BDE8F08F149BDA691868D3E901B5D3E90398D3E905760D92FFF738FF0E90584636
:202D0000FFF70EFF139028461291FFF709FF0F9048460D46FFF704FF824640468946FFF772
:202D2000FFFE834638468846FFF7FAFE109030460F46FFF7F5FE0E4611900D98FFF716FF9A
:202D4000119B0A90CDE90836109BCDE904B8CDE906370F9BCDE902A9CDE90035DDE9123229
:202D600020460E9905F0A4FCB9E700BF37700502CF6F0502007005020B700502F0B58BB086
:202D80000AAB042A0446154603E9060017D04BF024F90B46042105911449024604911449D7
:202DA00002200391DA210291124906950191124900912DF0DBFC2323A3600BB0F0BD089B13
:202DC0001868D3E90167FFF7D1FE05463046FFF7CDFE06463846FFF7C9FE32460346294651
:202DE00020460BB0BDE8F04003F022B849700502CF6F0502007005020B700502F0B58BB032
:202E00000AAB042A0446154603E9060017D04BF0E4F80B4604210591144902460491144997
:202E200002200391C4210291124906950191124900912DF09BFC2323A3600BB0F0BD089BE8
:202E40001868D3E90167FFF791FE05463046FFF78DFE06463846FFF789FE32460346294690
:202E600020460BB0BDE8F04003F03AB949700502CF6F0502007005020B700502F0B58BB098
:202E80000AAB042A0446154603E9060017D04BF0A4F80B4604210591144902460491144957
:202EA00002200391AE210291124906950191124900912DF05BFC2323A3600BB0F0BD089BBE
:202EC0001868D3E90167FFF751FE05463046FFF74DFE06463846FFF749FE324603462946D0
:202EE00020460BB0BDE8F04003F066BB49700502CF6F0502007005020B7005022DE9F04F75
:202F000095B014AB092A0446154603E9060018D04BF063F80B46092105912A490246049104
:202F20002949022003918E210291284906950191274900912DF01AFC2323A36015B0BDE8A2
:202F4000F08F129BDA691868D3E901B5D3E90398D3E905760C92FFF709FE0D905846FFF7B6
:202F6000DFFD119028461091FFF700FE05464846FFF7D6FD824640468946FFF7D1FD834685
:202F800038468846FFF7CCFD0E9030460F46FFF7C7FD0E460F900C98FFF7E8FD0F9B0A904D
:202FA000CDE908360E9BCDE904B8CDE90637DDE91032CDE902A9009520460D9905F010F808
:202FC000BCE700BF37700502CF6F0502007005020B7005022DE9F04FAFB02EAB0F2A144683
:202FE00003E90600199019D04AF0F7FF0B460F2105914A49024604914949022003916221CB
:203000000291484906940191474900912DF0AEFB2323199A93602FB0BDE8F08F2C9B5A6AFF
:2030200018681A929A6AD3E901BA1B92DA6AD3E903981C921A6BD3E905761D925A6BD3E907
:2030400007541E92FFF792FD1F905846FFF768FD2B9050462A91FFF763FDCDE92101484670
:20306000FFF75EFDCDE923014046FFF77FFD20903846FFF755FDCDE925013046FFF750FD22
:20308000CDE927012846FFF74BFD299020460D46FFF746FD06461A980C46FFF741FD8046B1
:2030A0001B980F46FFF73CFD82461C988946FFF737FD1A901D988B46FFF732FDCDE91B013D
:2030C0001E98FFF753FD1B9B1C9914931A9B1690CDE9123B299B1591CDE90A35279BCDE9AD
:2030E00010A90893289BCDE90E870993259BCDE90C640693269B0793209B0493239B029353
:20310000249B1F990393219B19980093229B0193DDE92A3203F0EAFB7DE700BF5B70050262
:20312000CF6F0502007005020B7005022DE9F04F2DED028B8DB00CAB082A0446154603E99E
:2031400006001AD04AF049FF0B46082105912949024604912849022003914421029127490F
:2031600006950191264900912DF000FB2323A3600DB0BDEC028BBDE8F08F0A9B1868D3E9C9
:203180000592D3E90186D3E903750892FFF7EEFCD8F808300990032B01D0FFF785FC30461A
:2031A000FFF7BEFC064638468A46FFF7B9FC98ED008B804628460F46FFF7B2FCD9F80820E4
:2031C0000546042A8B4601D0FFF78CFC0898FFF7CDFC059099F9002053460492B0EE480B90
:2031E00032462046CDE9025BCDE900870999FDF7FFFBBDE76E700502CF6F050200700502CC
:203200000B7005022DE9F04F2DED028B8DB00CAB082A0446154603E906001AD04AF0DDFE74
:203220000B4608210591294902460491284902200391262102912749069501912649009191
:203240002DF094FA2323A3600DB0BDEC028BBDE8F08F0A9B1868D3E90592D3E90186D3E9EC
:2032600003750892FFF782FCD8F808300990032B01D0FFF719FC3046FFF752FC0646384699
:203280008A46FFF74DFC98ED008B804628460F46FFF746FCD9F808200546042A8B4601D03A
:2032A000FFF720FC0898FFF761FC059099F9002053460492B0EE480B32462046CDE9025BB1
:2032C000CDE900870999FDF77BFDBDE76E700502CF6F0502007005020B700502F0B50546EC
:2032E0000C46002687B063689E4212D3A268C5E90023002A2FD173B34AF06FFE174A184BF9
:20330000039256220593174BCDE901320493164B10E0236853F82600A0B94AF05EFE0F4A91
:20332000124B039240F242320593114BCDE901320493104B0246009303200B462DF016FAAA
:203340004AF048FEA36803EBC607FFF7E9FB0136C7E90001C7E7284607B0F0BDA0700502CE
:20336000C4700502E3700502EC700502807005029C700502C86E050210B58B680446082BD9
:2033800086B014D04AF029FE124A134B039240F29B120593114B0493CDE90132104B02466D
:2033A000009303200B462DF0E1F94AF013FE096851B94AF012FE0B4B0B4A0593074B0392D5
:2033C00004934FF4CE72E7E7FFF788FF204606B010BD00BF0E710502F8700502047105026F
:2033E000C86E05024F710502817105022DE9F04FA5B01AAB0C2A0446154683E8060019D02C
:203400004AF0EBFD0B460C21059147490246049146490220039140F2422102914449069574
:203420000191444900912DF0A1F92323A36025B0BDE8F08F1A9A5168D2E908831393936A8D
:203440001068D2E90256D2E904B7D2E906A914931691FFF78BFB169915901CA8FFF78CFF9E
:2034600029461EA820ADFFF787FF3146284622AEFFF782FF59463046FFF77EFFBA68052AC9
:2034800013D04AF0AAFD2C4A2C4B0392F92205932B4BCDE9013204932A4B024600930320CA
:2034A0000B462DF063F94AF095FD3B7850461693FFF736FB199048461791FFF731FB814695
:2034C00040461891FFF72CFB824613988846FFF727FB0F4683461498FFF748FB189BCDE9DB
:2034E0000EB70B93179BCDE90CA80993199A169B089206931090CDF8289004AB96E80300CD
:2035000083E8030002AB95E8030083E803001EAB93E803008DE803001CAB20460CCB159931
:2035200004F062FC83E700BFC8710502CF6F0502007005020B700502E2710502D57D0502DF
:20354000DB710502C86E05022DE9F04F99B010AB0A2A0446154683E8060019D04AF03DFDDB
:203560000B460A21059131490246049130490220039140F21A2102912E49069501912E4998
:2035800000912DF0F3F82323A36019B0BDE8F08F109B1868D3E9019BD3E903A5D3E905872D
:2035A000D3E907620D92FFF7E1FA12AB49460E901846FFF7E1FE14AA104659460DF1580B45
:2035C000FFF7DAFE51465846FFF7D6FE2846FFF7A7FA0F9040460D46FFF7A2FA81463846CA
:2035E0008846FFF79DFA824630460F46FFF7BEFA06460D98FFF7BAFA0F9BCDE90A60CDE914
:203600000435CDE908A7CDE9069802AD9BE8030085E8030014AA92E803008DE8030012ABA3
:2036200020460CCB0E9903F06BFDAEE7BC6F0502CF6F0502007005020B7005022DE9F047F9
:203640008EB008AB062A0446154683E8060019D04AF0C3FC0B46062105911F4902460491FE
:203660001E49022003914FF4AC7102911C49069501911C4900912DF079F82323A3600EB01D
:20368000BDE8F087089B0AAE1868D3E9017AD3E90389FFF76BFA394605460CAF3046FFF768
:2036A0006BFE51463846FFF767FE4046FFF738FA884682464846FFF759FACDE902A8049022
:2036C00097E803008DE80300294696E80C00204602F0B0FED3E700BF1E720502CF6F05029C
:2036E000007005020B7005022DE9F0418CB008AB042A0446154683E8060019D04AF06DFCCB
:203700000B46042105911649024604911549022003914FF4A0710291134906950191134981
:2037200000912DF023F82323A3600CB0BDE8F081089B0AAE1868D3E90187FFF717FA4146F8
:2037400005463046FFF718FE3846FFF70FFA0090294696E80C00204605F0EEF8E5E700BFCA
:2037600049700502CF6F0502007005020B7005027FB58B681BB9037107B05DF804FB012BA5
:2037800014D04AF02AFC0B4A0B4B039240F2611205930A4BCDE901320493094B0246009364
:2037A00003200B462CF0E2FF4AF014FC0A680260E1E700BF7E6F05026A6F0502756F050234
:2037C000C86E05022DE9F04FB1B024AB112A144683E8060016901AD04AF0FFFB0B461121DA
:2037E00005915349024604915249022003914FF4F0710291504906940191504900912CF027
:20380000B5FF2323169A936031B0BDE8F08F249BD3E909721792DA6A186818921A6BD3E9B8
:2038200001B119925A6BD3E903A91A929A6BD3E905481B92DA6BD3E907651C921E91FFF7D7
:2038400095F91D905846FFF791F90DF1A00B1E99239026A8FFF78CFF514658460DF1A80AC8
:20386000FFF78AFD494650460DF1B009FFF784FD214648462EACFFF77FFD41462046FFF754
:203880007BFD3046FFF74CF9CDE91E012846FFF747F9064638460D46FFF768F90746179816
:2038A000FFF764F980461898FFF73AF9CDE920011998FFF735F922901A981991FFF756F917
:2038C00017901B98FFF752F918901C98FFF74EF9189B19991393179B14901293229B11914F
:2038E0001093209BCDE90C780E93219BCDE90A650F931E9B08931F9B099306AB94E8030032
:2039000083E8030004AB99E8030083E8030002AB9AE8030083E8030026AB9BE80300239AE4
:203920008DE803001D99169804F020FD6CE700BF30720502CF6F0502007005020B700502A1
:203940002DE9F04FADB022AB102A144683E8060015901AD04AF041FB0B46102105914D4930
:20396000024604914C49022003914FF4D57102914A49069401914A4900912CF0F7FE2323C9
:20398000159A93602DB0BDE8F08F229BD3E909821692DA6A186817921A6BD3E901B11892CE
:2039A0005A6BD3E903A419929A6BD3E90597D3E907561A921C91FFF7D9F81B905846FFF75F
:2039C000D5F80DF1980B1C99219024A8FFF7D0FE514658460DF1A00AFFF7CEFC21465046E9
:2039E0002AACFFF7C9FC49462046FFF7C5FC3846FFF796F8CDE91C012846FFF791F81E901A
:203A000030460D46FFF78CF8074640460E46FFF7ADF880461698FFF7A9F881461798FFF72A
:203A20007FF8179018981F91FFF77AF8209019981891FFF79BF816901A98FFF797F8169B7F
:203A400018991293209B13901093179B11910E931F9BCDE90C890F931E9BCDE90A76CDE9CE
:203A600008351C9B06931D9B079304AB94E8030083E8030002AB9AE8030083E8030024AB5C
:203A80009BE80300219A8DE803001B99159803F0C3FE77E743720502CF6F05020070050282
:203AA0000B7005022DE9F04FA9B01EAB0F2A144683E8060013901AD04AF08FFA0B460F2138
:203AC00005914849024604914749022003914FF4BB710291454906940191454900912CF0A5
:203AE00045FE2323139A936029B0BDE8F08F1E9BD3E909421492DA6A186815921A6BD3E98E
:203B000001B116925A6BD3E903A9D3E90587D3E9076517921991FFF729F818905846FFF708
:203B200025F80DF1880B19991D9020A8FFF720FE514658460DF1900AFFF71EFC494650469A
:203B40000DF19809FFF718FC41464846FFF714FC3846FEF7E5FFCDE919013046FEF7E0FF30
:203B6000CDE91B012846FFF701F805462046FEF7FDFF04461498FEF7D3FF074615980E4669
:203B8000FEF7CEFF159016988846FEF7EFFF14901798FEF7EBFF159B1499CDE90E381B9B1E
:203BA000CDE90C7608931C9BCDE90A540993199B119006931A9B1091079304AB99E80300BA
:203BC00083E8030002AB9AE8030083E8030020AB9BE803001D9A8DE803001899139803F008
:203BE0005FFC81E75B700502CF6F0502007005020B7005022DE9F04FA7B01CAB0D2A1446EE
:203C000083E80600139019D04AF0E7F90B460D2105914049024604913F4902200391F021C3
:203C200002913E49069401913D4900912CF09EFD2323139A936027B0BDE8F08F1C9BD3E91C
:203C400009421492DA6A1868D3E901B1D3E903A9D3E90587D3E9076515921791FEF786FFA0
:203C600016905846FEF782FF0DF1800B17991B901EA8FFF77DFD51465846FFF779FD484641
:203C8000FEF74EFFCDE917014046FEF749FFCDE919013846FEF744FF0DF1880980460F4621
:203CA0004846314624AEFFF767FB29463046FFF763FB2046FEF734FF054614980C46FEF7D0
:203CC0002FFF8A4614901598FEF750FF149BCDE90C54CDE90E3A10900AAB96E8030083E84D
:203CE000030008AB99E8030083E80300199BCDE9068704931A9B1B9A0593179B1699029396
:203D0000189BCDF800B0039313981EAB03F0D6FF91E700BF56720502CF6F050200700502E7
:203D20000B700502044B054A1A6011225A6093E8030028F08BB900BFB0880F22B001002227
:203D40007FB54AF04AF9094A094B03924FF4AE720593084BCDE901320493074B024600937B
:203D600003200B462CF002FD4AF034F97E6F05026A6F0502756F0502C86E05027FB50A68AB
:203D80000B69C0E90023A2B99BB14AF026F90A4A0A4B039256220593094BCDE901320493C1
:203DA000084B0246009303200B462CF0DFFC4AF011F907B05DF804FBA0700502C4700502C9
:203DC000E3700502EC7005022DE9F04FA3B00CAB032A144683E80600099017D04AF0FDF820
:203DE0000B460321059189490246049188490220039143210291874906940191864900912F
:203E00002CF0B4FC2323099A9360FBE00C9B19688A68012A01D0FFF793FF5A68906801289E
:203E2000F9D19B689868042813D04AF0D6F87B4A7B4B0392CF2205937A4BCDE901320493B0
:203E4000794B0246009320460B462CF08FFC4AF0C1F8D3E90053002B11DA4AF0BEF80B460C
:203E60007249024604917249039151210291694902200191684900912CF078FC3AE0176885
:203E80000E68384648F0A8FB0DF140087B69314604460DF1480A40460893FFF76FFF394614
:203EA0005046DDF84490FFF769FF139BA9EB0309B9F1010F20D04AF090F805460C46404688
:203EC0003146FFF75BFF50463946119EFFF756FF139B2A46CDE90563564B02200493564BD5
:203EE00003935B2302934B4B01934B4B009323462CF03CFC122386E7D3464FF000096B1C7F
:203F0000129339464046FFF739FF119B314699450EA81FD3FFF732FF0F9BCDF840A0119306
:203F2000304698E8060048F03CFB00283DD04AF054F80B4641490246049141490220039163
:203F40007821029133490191334900912CF00EFC022358E7FFF712FF0E9A09F1010952F893
:203F600029204FEA8903394640460B930A92FFF705FF0B9B1099043BC9580A9A8A4209D002
:203F80004AF02BF80B462F49024604912E4903916B216BE7394640460A93FFF7EFFE109A06
:203FA0000A9BD3584BF8043FABE7089BD6F80C805C43FF680CD0A4FB05234BB14AF00DF838
:203FC0000B462249024604912149039187214DE7304648F001FB654373695843631901D256
:203FE000834209D949F0F9FF0B461A490246049119490391902139E72246394608EB0500B2
:204000004EF0CBF923B0BDE8F08F00BF7174050283740502B1740502BF7405022E6F0502F4
:20402000D16E0502286F0502C86E0502D1740502DC740502127505024B7505021F760502CB
:2040400030760502A5750502D475050263760502B2760502DD760502307705027FB549F0BE
:20406000BCFF094A094B03924FF4AE720593084BCDE901320493074B0246009303200B46DA
:204080002CF074FB49F0A6FF7E6F05026A6F0502756F0502C86E05022DE9F04FA3B00AAB5E
:2040A000032A0446154683E8060018D049F095FF0B46032105919A49024604919949022039
:2040C000039144210291984906950191974900912CF04CFB2323A36023B0BDE8F08F0A9E8A
:2040E00033689A68012A01D0FFF7B8FF71680EA81D68FFF741F9B3689A68012AF4D11E68A3
:2041000095F91C1096F91C300D96994220D1D6F810E00F9B5FEAEE7B4FD549F05EFF0B4676
:2041200083490246049183490391222102918249022001917D4900912CF018FB49F04DFF16
:204140000B467E49024604917A49039156212AE049F043FF0B46297F02461E2996BF78487A
:20416000784950F82110307F1E2896BF744D754855F82000CDE905107349022004917349D6
:2041800003914FF41571029171490191714900912CF0ECFA49F021FF0B466F490246049157
:2041A00064490391512102915F49022001915F4900912CF0DBFA12238DE77345ADD1002133
:2041C0004FF0FF3789460B468846DDF838C00992714579EB0B000EDB7A1C52D0B8F1000F96
:2041E00045D049F0FAFE0B465C49024604915C4903913B219AE7DCE900A0B0F1FF3F08BF85
:20420000BAF1FF3F12D1013706D10F46013149F100090CF1080CDBE749F0DFFE0B46514925
:20422000024604915049039129217FE7BAF1FF3F70F1FF3209DA49F0D0FE0B464B49024632
:2042400004914B4903912F2170E7099A50430AFB0300A2FB0A23099212AA42F821A0034459
:20426000DCE90020104308BF08F10108CEE7686922AA02EB8707C117099AFCF77DF947F84D
:20428000400C336912AACDE9102330461A46109948F087F990B149F0A0FE0B46354902462B
:2042A0000491354903915C2102911F49022001911E4900912CF05AFA01230CE70D986B6933
:2042C00042699A4216D049F088FE0B460D9902464969022006916969059128490491284929
:2042E00003916621029110490191104900912CF03DFA60E7ED6848F066F9294602460DA849
:2043000022F0B6FD00283FF4E7AE49F066FE0B461C49024604911C4903917021C4E700BFC4
:204320007174050283740502A7770502AF770502737805025F780502A77805029479050237
:20434000D03B050298770502BB770502DE770502167805022E7805023C78050241790502E2
:204360004D790502BC780502CD780502007905020E790502D67905022F7A0502627A0502F2
:204380007E7A0502B57A0502097B05022DE9F0418AB00AAB032A0446154603E9060017D07C
:2043A00049F01BFE0B460321059125490246049124490220039140F27A21029122490695CC
:2043C0000191224900912CF0D1F92323A3601CE0089BD3E90056AA68042A19D1B768042FF3
:2043E00016D12846D3F80880FEF79AFB054630460C46FEF795FB02460B4628462146FCF792
:20440000BBF8C8E90023C8F808700AB0BDE8F08149F0E3FD0B46B16802460691A968022078
:2044200005910B4904910B4903914FF42271029105490191054900912CF098F91323C5E75E
:20444000717405028374050200700502CB7C0502227C0502E17C0502F0B58BB00AAB032AE2
:204460000446154603E9060018D049F0B6FD0B460321059114490246049114490220039179
:2044800040F265210291124906950191114900912CF06CF92323A3600BB0F0BD089B186809
:2044A000D3E90176FEF73CFB054638460C46FEF737FB02460B4628462146FCF75DF8C6E9F6
:2044C00000230423B360E7E7717405028374050200700502CB7C0502F0B58BB00AAB032A40
:2044E0000446154603E9060018D049F076FD0B460321059114490246049114490220039139
:204500004FF414710291124906950191114900912CF02CF92323A3600BB0F0BD089B1868B8
:20452000D3E90176FEF7FCFA054638460C46FEF7F7FA0B46024621462846FCF71DF80423BF
:20454000C6E90001B360E7E7717405028374050200700502CB7C0502F0B58BB00AAB032A59
:204560000446154603E9060016D049F036FD0B4603210591244902460491244902200391DA
:20458000DD210291224906950191224900912CF0EDF82323A3601DE0089BD3E90057AA68E7
:2045A000042A19D1BA68042A16D128469E68FEF7B7FA054638460C46FEF7B2FAA842234683
:2045C00071EB04042A46BCBF0B460246C6E900230423B3600BB0F0BD49F0FFFC0B46B968D9
:2045E00002460691A968022005910B4904910B490391EB21029106490191064900912CF0C6
:20460000B5F81323C6E700BF717405028374050200700502CB7C0502227C0502FD7C050277
:20462000F0B58BB00AAB032A0446154603E9060016D049F0D2FC0B46032105912349024675
:204640000491234902200391BD210291214906950191214900912CF089F82323A3601CE0BE
:20466000089BD3E90057AA68042A18D1BA68042A15D128469E68FEF753FA054638460C4654
:20468000FEF74EFA854223468C412A46BCBF0B460246C6E900230423B3600BB0F0BD49F0AF
:2046A0009CFC0B46B96802460691A968022005910A4904910A490391CC2102910549019119
:2046C000054900912CF052F81323C7E7717405028374050200700502CB7C0502227C05025D
:2046E0003F7D05027FB58368032B13D049F075FC0B4A0C4B0392E42205930B4BCDE90132FF
:2047000004930A4B0246009303200B462CF02EF849F060FC90ED000B07B05DF804FB00BF35
:204720008A6E0502766E0502816E0502C86E050270B58AB00AAB022A0446154603E9060085
:2047400018D049F04AFC02461E480B4604901E480221039040F2E72002901C4806950190E8
:204760001B480591009008462CF000F82323A3600AB070BD089B1E68B268032A0BD130465C
:204780005C68FFF7AFFF51EC100BFBF779FF0423C4E90001EBE749F020FC0B46B168024641
:2047A00005910C49284604910B4903914FF43D71029106490191064900912BF0D7FF1323B7
:2047C000D5E700BF817D05028374050200700502CB7C0502227C0502937D050270B52DED9B
:2047E000068B8AB00AAB022A0446154603E906001AD049F0F2FB02462D480B4604902D484F
:20480000022103904FF42E7002902B48069501902A480591009008462BF0A8FF2323A360DF
:204820000AB0BDEC068B70BD089B1E68B268032A27D130465C68FFF755FFB0EE408BB8FE4C
:20484000409B39EE40ABB6EE007BB0EECA6BB4EE476BF1EE10FA0CD1B0EE490BB0EE001BB4
:204860002BF046FEB5EE400BF1EE10FA18BF38EE4A9B51EC190BFBF703FF0423C4E90001F6
:20488000CDE749F0AAFB0B46B168024605910C49284604910B49039140F2D62102910649F3
:2048A0000191064900912BF061FF1323B7E700BF817D05028374050200700502CB7C0502B0
:2048C000227C0502AA7D050270B58AB00AAB022A0446154603E9060018D049F07EFB02464C
:2048E0001F480B4604901F480221039040F29A2002901D48069501901C4805910090084668
:204900002BF034FF2323A3600AB070BD089B1E68B268032A0DD130465C68FFF7E3FEBAFE02
:20492000400B51EC100BFBF7ABFE0423C4E90001E9E749F052FB0B46B168024605910C4971
:20494000284604910B49039140F2A721029106490191064900912BF009FF1323D3E700BF4C
:20496000817D05028374050200700502CB7C0502227C0502AA7D05022DE9F0418AB00AAB66
:20498000022A0546904603E9060018D049F025FB024624480B46049023480221039040F2AB
:2049A000ED1002902148CDF81880019020480591009008462BF0DAFE2323AB600EE0089B60
:2049C000D3E90064B768042F0BD13046FEF7A8F8404261EB4101C4E90001A7600AB0BDE85A
:2049E000F081032F07D13046FFF77CFEB1EE400B84ED000BF1E749F0F0FA0B46B168024643
:204A000005910C49404604910B4903914FF4FE71029106490191064900912BF0A7FE1323AC
:204A2000CBE700BF817D05028374050200700502CB7C0502227C0502937D05022DE9F04338
:204A40002DED028B8BB00AAB032A0746914603E9060018D049F0C1FA0B4603210591464906
:204A6000024604914549022003914FF4A87102914349CDF818900191424900912BF076FEF0
:204A80002323BB6021E0089BD3E90065D6F808809C68B8F1040F1DD1D5F80880B8F1040FDB
:204AA0002BD13046FEF73CF8FBF738FD41EC180B2846FEF735F8FBF731FD41EC160B88EE70
:204AC000067B84ED007BC4F808900BB0BDEC028BBDE8F083B8F1030F26D1D5F80890B9F14B
:204AE000030F1ED13046FFF7FDFD2846B0EE408BFFF7F8FD88EE007BE3E7B8F1030F13D133
:204B00003046FEF70DF8FBF709FD41EC180B2846FFF7E8FD88EE007B84ED007BC4F8088073
:204B2000D3E7B9F1040F17D049F057FA0B46A96802460691B168022005911349049113492E
:204B400003914FF4B37102910D4901910D4900912BF00CFE132394E73046FFF7C3FD284688
:204B6000B0EE408BFDF7DCFFFBF7D8FC41EC160B88EE067BD0E700BF717405028374050292
:204B800000700502CB7C0502227C0502E17C05022DE9F0432DED028B8BB00AAB032A0746ED
:204BA000144603E9060017D049F017FA0B46032105914849024604914749022003914FF476
:204BC00091710291454906940191454900912BF0CDFD2323BB6046E0089B9C68D3E9006533
:204BE000B368042B22D1D5F80880B8F1040F3FD13046FDF795FF064628460F46FDF790FFC7
:204C0000024689460B4630463946FBF7B5FC97EA090F0E46054622D51A4302D0013D66F1A1
:204C200000010423C4E90051A3601CE0032B2CD1AB68032B27D13046FFF754FDB0EE408BC5
:204C40002846FFF74FFDB0EE401B2046B0EE480B0BB0BDEC028BBDE8F043FBF789BEC4E9A5
:204C60000001C4F808800BB0BDEC028BBDE8F083B8F1030F09D13046FDF752FFFBF74EFC5A
:204C800041EC180BDCE7042B17D049F0A6F90B46A96802460691B168022005911149049112
:204CA0001149039140F23D1102910C4901910C4900912BF05BFD13238CE73046FFF712FD8F
:204CC0002846B0EE408BFDF72BFFFBF727FC41EC110BBAE77174050283740502007005027F
:204CE000CB7C0502227C0502E17C05022DE9F0432DED028B8BB00AAB032A8046144603E944
:204D0000060018D049F069F90B46032105914349024604914249022003914FF48871029186
:204D2000404906940191404900912BF01FFD2323C8F8083030E0089BD3E90065B7689C6838
:204D4000042F14D1AF68042F2BD13046FDF7E8FE064628468846FDF7E3FE714300FB081180
:204D6000A6FB00600144C4E90061A76014E0032F2BD1D5F80890B9F1030F23D13046FFF735
:204D8000B1FC2846B0EE408BFFF7ACFC28EE008B84ED008BC4F808900BB0BDEC028BBDE86A
:204DA000F083032F11D13046FDF7BAFEFBF7B6FB41EC180B2846FFF795FC28EE008B84ED50
:204DC000008BD2E7B9F1040F17D049F006F90B46A96802460691B1680220059113490491B0
:204DE000134903914FF4887102910E4901910E4900912BF0BBFC13239AE73046FFF772FCC0
:204E00002846B0EE408BFDF78BFEFBF787FB41EC170B27EE087B84ED007BA6E7717405027E
:204E20008374050200700502CB7C0502227C0502E17C05022DE9F0432DED028B8BB00AABC6
:204E4000032A0746144603E9060017D049F0C5F80B4603210591444902460491434902208C
:204E600003914FF483710291414906940191414900912BF07BFC2323BB6033E0089BD3E99E
:204E80000065D6F808809C68B8F1040F14D1D5F80880B8F1040F2AD13046FDF741FE0646B1
:204EA00028460F46FDF73CFE361A67EB0107C4E90067C4F8088015E0B8F1030F2CD1D5F885
:204EC0000890B9F1030F24D13046FFF70BFC2846B0EE408BFFF706FC38EE408B84ED008B5A
:204EE000C4F808900BB0BDEC028BBDE8F083B8F1030F11D13046FDF713FEFBF70FFB41EC14
:204F0000180B2846FFF7EEFB38EE408B84ED008BCFE7B9F1040F17D049F05FF80B46A968E8
:204F200002460691B1680220059113490491134903914FF4837102910D4901910D49009147
:204F40002BF014FC132397E73046FFF7CBFB2846B0EE408BFDF7E4FDFBF7E0FA41EC170B79
:204F600038EE478BD2E700BF717405028374050200700502CB7C0502227C0502E17C050209
:204F80002DE9F0432DED028B8BB00AAB032A0746144603E9060016D049F01FF80B460321C0
:204FA0000591444902460491434902200391FC210291424906940191414900912BF0D6FB41
:204FC0002323BB6033E0089BD3E90065D6F808809C68B8F1040F14D1D5F80880B8F1040F8D
:204FE0002AD13046FDF79CFD064628460F46FDF797FD361847EB0107C4E90067C4F808803C
:2050000015E0B8F1030F2CD1D5F80890B9F1030F24D13046FFF766FB2846B0EE408BFFF733
:2050200061FB38EE008B84ED008BC4F808900BB0BDEC028BBDE8F083B8F1030F11D13046F7
:20504000FDF76EFDFBF76AFA41EC180B2846FFF749FB38EE008B84ED008BCFE7B9F1040F83
:2050600016D048F0BAFF0B46A96802460691B168022005911349049113490391FC210291B6
:205080000E4901910E4900912BF070FB132398E73046FFF727FB2846B0EE408BFDF740FD6E
:2050A000FBF73CFA41EC170B37EE087B84ED007BA4E700BF7174050283740502007005023A
:2050C000CB7C0502227C0502E17C05027FB58368052B13D048F081FF0A4A0B4B0392F92235
:2050E00005930A4BCDE901320493094B0246009303200B462BF03AFB48F06CFF007807B07E
:205100005DF804FBE2710502D57D0502DB710502C86E0502F0B58BB00AAB042A074614468E
:2051200003E9060017D048F058FF0B46042105912E49024604912E490220039140F2262101
:2051400002912C49069401912B4900912BF00EFB2323BB6029E0089D2C68A368052B15D02F
:2051600048F03BFF0B46A1680246059123490491234903914FF40C7102911E490220019116
:205180001D4900912BF0F2FA1323E2E72046FFF79DFF60B16C68A668ED68042E09D1204660
:2051A000FDF7BEFCC5E90001AE600BB0F0BDAC68F1E7032E05D12046FFF794FA85ED000BC2
:2051C000F2E7052E04D12046FFF780FF2870EBE748F003FF0B46A168024605910949049150
:2051E0000949039140F23F21C6E700BF497005028374050200700502CB7C0502D37D0502F1
:20520000DE7D0502227C0502197E0502F0B58BB00AAB022A0446154603E9060017D048F072
:20522000DCFE02461C480B4604901C48022103904FF4027002901A4806950190194805911D
:20524000009008462BF092FA2323A3600CE0089B1E68B768052F09D130465C68FFF736FFD9
:2052600080F001002070A7600BB0F0BD48F0B5FE0B46B168024605910B49284604910B49E0
:20528000039140F21521029105490191054900912BF06CFA1323D8E7817D05028374050247
:2052A00000700502CB7C0502227C0502607E05022DE9F0412DED028B8AB00AAB032A074648
:2052C000144603E9060017D048F087FE0B460321059148490246049147490220039140F2ED
:2052E000E3110291454906940191454900912BF03DFA2323BB6019E0089B9C68D3E90065DA
:20530000B368042B17D1AB68042B29D13046FDF707FC074628460E46FDF702FCB842B141C5
:20532000ACBF0123002323700523A3600AB0BDEC028BBDE8F081032B2DD1AB68032B19D1A0
:205340003046FFF7CFF9B0EE408B2846FFF7CAF9B4EEC08BF1EE10FA94BF01230023E2E750
:20536000032B1AD13046FDF7DBFBFBF7D7F841EC180BEAE7042B10D13046FFF7B3F928465C
:20538000B0EE408BFDF7CCFBFBF7C8F841EC170BB4EEC78BDEE7052B17D048F01EFE0B4673
:2053A000A96802460691B16802200591154904911549039140F2E31102911049019110494A
:2053C00000912BF0D3F9132394E7D5F80880B8F1050FE2D13046FFF779FE06462846FFF74C
:2053E00075FE86428CBF00260126C4F8088026709CE700BF7174050283740502007005025D
:20540000CB7C0502227C0502E17C05022DE9F0412DED028B8AB00AAB032A0746144603E998
:20542000060017D048F0D9FD0B460321059148490246049147490220039140F2D911029103
:20544000454906940191454900912BF08FF92323BB6019E0089B9C68D3E90065B368042B64
:2054600017D1AB68042B29D13046FDF759FB074628460E46FDF754FB87428E41ACBF0123D1
:20548000002323700523A3600AB0BDEC028BBDE8F081032B2DD1AB68032B19D13046FFF762
:2054A00021F9B0EE408B2846FFF71CF9B4EEC08BF1EE10FAACBF01230023E2E7032B1AD186
:2054C0003046FDF72DFBFBF729F841EC180BEAE7042B10D13046FFF705F92846B0EE408BB5
:2054E000FDF71EFBFBF71AF841EC170BB4EEC78BDEE7052B17D048F070FD0B46A96802462D
:205500000691B16802200591154904911549039140F2D911029110490191104900912BF09F
:2055200025F9132394E7D5F80880B8F1050FE2D13046FFF7CBFD06462846FFF7C7FD864267
:2055400034BF00260126C4F8088026709CE700BF717405028374050200700502CB7C050240
:20556000227C0502E17C05022DE9F0412DED028B8AB00AAB032A0746144603E9060017D098
:2055800048F02BFD0B460321059148490246049147490220039140F2CF110291454906941F
:2055A0000191454900912BF0E1F82323BB6019E0089B9C68D3E90065B368042B17D1AB68DF
:2055C000042B29D13046FDF7ABFA074628460E46FDF7A6FA87428E41B4BF0123002323700B
:2055E0000523A3600AB0BDEC028BBDE8F081032B2DD1AB68032B19D13046FFF773F8B0EEAE
:20560000408B2846FFF76EF8B4EEC08BF1EE10FA4CBF01230023E2E7032B1AD13046FDF781
:205620007FFAFAF77BFF41EC180BEAE7042B10D13046FFF757F82846B0EE408BFDF770FA65
:20564000FAF76CFF41EC170BB4EEC78BDEE7052B17D048F0C2FC0B46A96802460691B1687F
:2056600002200591154904911549039140F2CF11029110490191104900912BF077F8132353
:2056800094E7D5F80880B8F1050FE2D13046FFF71DFD06462846FFF719FD86422CBF0026A5
:2056A0000126C4F8088026709CE700BF717405028374050200700502CB7C0502227C050253
:2056C000E17C05022DE9F0412DED028B8AB00AAB032A0746144603E9060017D048F07DFC2B
:2056E0000B460321059148490246049147490220039140F2C5110291454906940191454908
:2057000000912BF033F82323BB6019E0089B9C68D3E90065B368042B17D1AB68042B29D122
:205720003046FDF7FDF9074628460E46FDF7F8F9B842B141B4BF0123002323700523A360B1
:205740000AB0BDEC028BBDE8F081032B2DD1AB68032B19D13046FEF7C5FFB0EE408B2846E6
:20576000FEF7C0FFB4EEC08BF1EE10FACCBF01230023E2E7032B1AD13046FDF7D1F9FAF7C6
:20578000CDFE41EC180BEAE7042B10D13046FEF7A9FF2846B0EE408BFDF7C2F9FAF7BEFEC7
:2057A00041EC170BB4EEC78BDEE7052B17D048F014FC0B46A96802460691B1680220059170
:2057C000154904911549039140F2C511029110490191104900912AF0C9FF132394E7D5F814
:2057E0000880B8F1050FE2D13046FFF76FFC06462846FFF76BFC864294BF00260126C4F89F
:20580000088026709CE700BF717405028374050200700502CB7C0502227C0502E17C050270
:205820002DE9F0412DED028B8AB00AAB032A0746144603E9060017D048F0CFFB0B46032167
:20584000059148490246049147490220039140F2BB110291454906940191454900912AF07A
:2058600085FF2323BB601AE0089B9C68D3E90065B368042B18D1AB68042B2AD13046FDF7A7
:205880004FF9074628460E46FDF74AF98E4208BF87420CBF0123002323700523A3600AB090
:2058A000BDEC028BBDE8F081032B2DD1AB68032B19D13046FEF716FFB0EE408B2846FEF7F9
:2058C00011FFB4EE408BF1EE10FA0CBF01230023E2E7032B1AD13046FDF722F9FAF71EFEDC
:2058E00041EC180BEAE7042B10D13046FEF7FAFE2846B0EE408BFDF713F9FAF70FFE41EC12
:20590000170BB4EE487BDEE7052B17D048F065FB0B46A96802460691B1680220059115491C
:2059200004911549039140F2BB1102910F4901910F4900912AF01AFF132393E7D5F8088044
:20594000B8F1050FE2D13046FFF7C0FB06462846FFF7BCFB331A5E425E412670C4F80880E3
:205960009DE700BF717405028374050200700502CB7C0502227C0502E17C05022DE9F041E5
:205980008AB00AAB022A0646904603E9060018D048F023FB024629480B4604902848022169
:2059A000039040F2991002902648CDF81880019025480591009008462AF0D8FE2323B36061
:2059C0000BE0089BD3E90054AF68042F08D12846FDF7A6F8C4E90001A7600AB0BDE8F08181
:2059E000032F0BD12846FEF77DFE51EC100BFAF747FEC4E900010423A360EEE7052F06D175
:205A00002846FFF763FB002320606360F3E748F0E4FA0B46A968024605910C4940460491BE
:205A20000B4903914FF4D571029106490191064900912AF09BFE1323C1E700BF817D05024C
:205A40008374050200700502CB7C0502227C05029E7E05022DE9F0418AB00AAB022A06460D
:205A6000904603E9060018D048F0B7FA024629480B46049028480221039040F27B1002907A
:205A80002648CDF81880019025480591009008462AF06CFE2323B36017E0089BD3E9005442
:205AA000AF68042F09D12846FDF73AF8FAF736FDC4E900010323A36007E0032F08D12846D3
:205AC000FEF710FE84ED000BA7600AB0BDE8F081052F09D12846FFF7F9FA07EE100AB8EE56
:205AE000477B84ED007BE5E748F077FA0B46A968024605910B49404604910B49039140F2BA
:205B00008D11029105490191054900912AF02EFE1323C0E7817D05028374050200700502F8
:205B2000CB7C0502227C0502937D050230B58BB00AAB022A0446154603E9060017D048F0A4
:205B40004CFA024610480B460490104802210390A72002900E48069501900E480591009015
:205B600008462AF003FE2323A3600BB030BD089BD3E90004FCF7FAFF03685B69DA17C4E9AF
:205B800000320423F0E700BF817D05028374050200700502CB7C050270B58EB008AB022A0C
:205BA0000546144683E8060017D048F016FA02464A480B4604904A48022103908420029063
:205BC00048480694019048480591009008462AF0CDFD2323AB600EB070BD089E3068FCF7B5
:205BE000C5FF03685A69002A12DC48F0F6F90B463E49024604913E492046039190210291FA
:205C000038490191384900912AF0B0FD1223E1E793F91C4070680B2C43D8DFE804F00611B7
:205C20001A1E214229334242423BDB6804221B780C920A9300230B930AA92AF0A9FDCAE750
:205C4000DB6893F900300421DA17CDE90A320C91F2E7DB68B3F90030F5E7DB681B68F2E72D
:205C60000421DB680C91D3E90023CDE90A23E3E7DB6893ED007A0323B7EEC77A0C938DED31
:205C80000A7BD9E70321DB680C91D3E90023CDE90A23D1E70522DB680C921B788DF82830C9
:205CA000CAE71223AB6048F098F9E4B21E2C0B4696BF1049104951F8241002460F48CDE920
:205CC00004100F49022003919621029105490191054900912AF04AFD7DE700BF817D050210
:205CE0008374050200700502CB7C0502EC7E0502057F05024C3C05029877050207800502B2
:205D0000407F050270B58AB00AAB032A0446154603E9060017D048F060F90B460321059162
:205D20002149024604912149022003916C2102911F49069501911F4900912AF017FD2323DA
:205D4000A3600AB070BD089B1868D3E90145FCF70DFF06682046FCF7E3FE336904469842CD
:205D600001DA002817DA48F038F9134A0794336903928822013B0693104B0593104BCDE91A
:205D8000013204930F4B0246009303200B462AF0EDFC48F01FF9336853F82030DA17C5E968
:205DA00000320423AB60CCE7717405028374050200700502CB7C0502717F05025A7F050246
:205DC00005FE0502E07F0502044B054A1A601C225A6093E8030026F039B900BFB8880F228D
:205DE0007C0200227FB50A680B69C0E90023A2B99BB148F0F2F80A4A0A4B03925622059306
:205E0000094BCDE901320493084B0246009303200B462AF0ABFC48F0DDF807B05DF804FB33
:205E2000A0700502C4700502E3700502EC7005022DE9F04F1C460B68834693F91C5088469A
:205E4000012D17469FB01AD048F0C7F8D8F80030844A93F91C3003920793012330220693A3
:205E6000814B0593814B0493CDE90132804B0246009303200B462AF079FC48F0ABF8136873
:205E800093F91C60012E0ED048F0A7F83B68794A93F91C300392CDE90653774B3522059383
:205EA000724B0493E0E7236893F91C50012D0ED048F093F82368714A93F91C300392CDE90C
:205EC00006636F4B3A220593684B0493CCE700230DF1640A119311AB0093524605233946ED
:205EE00040462AF08FFC064660B9119BCDF854A016930DF15409206899E8060046F051FB18
:205F00000646A0B148F069F80B465E49024603911F2102915C49022001915C4900912AF0FB
:205F200025FCCBF8086020461FB0BDE8F08FD8F800100BA8CB680E6908933B68DB68099362
:205F40002368D3F80C80FFF74DFF032E13DD0B99321F51F8222011920B99F21E51F822209A
:205F600012920B99B21E51F8222013920B9A731E52F8235007E01195EED0022E1295F0D004
:205F8000012E1395F2D0396814950D690DA8FFF729FF032D13DD0D9A2B1F52F8233015937F
:205FA0000D9AEB1E52F8233016930D9AAB1E52F8233017930D9B013D53F8253009E04FF086
:205FC00001031593ECD0022D1693EED0012D1793F0D0216818930D690FA8FFF703FF032DA2
:205FE00013DD0F9A2B1F52F8233019930F9AEB1E52F823301A930F9AAB1E52F823301B93BC
:206000000F9B013D53F8253009E04FF001031993ECD0022D1A93EED0012D1B93F0D01C937F
:206020000020CDE9018A099B0899CDF8009011AA42F0CBFE054600283FF475AF47F0CDFFE2
:206040000B46134902460391572102910E49022001910E49049500912AF088FB0123CBF89C
:20606000083060E793870502468705026D870502D987050216880502EF8705028388050216
:206080005C880502C9880502FE8805020A890502198905027FB50A680B69C0E90023A2B9AC
:2060A0009BB147F09AFF0A4A0A4B039256220593094BCDE901320493084B02460093032051
:2060C0000B462AF053FB47F085FF07B05DF804FBA0700502C4700502E3700502EC70050232
:2060E0002DE9F04F1C460B68834693F91C508846012D17469FB01AD047F06FFFD8F800307E
:20610000844A93F91C3003920793012330220693814B0593814B0493CDE90132804B0246D8
:20612000009303200B462AF021FB47F053FF136893F91C60012E0ED047F04FFF3B68794A1E
:2061400093F91C300392CDE90653774B35220593724B0493E0E7236893F91C50012D0ED068
:2061600047F03BFF2368714A93F91C300392CDE906636F4B3A220593684B0493CCE700230E
:206180000DF1640A119311AB009352460523394640462AF037FB064660B9119BCDF854A0C5
:2061A00016930DF15409206899E8060046F0F9F90646A0B147F011FF0B465E4902460391EC
:2061C000212102915C49022001915C4900912AF0CDFACBF8086020461FB0BDE8F08FD8F826
:2061E00000100BA8CB680E6908933B68DB6809932368D3F80C80FFF74DFF032E13DD0B992C
:20620000321F51F8222011920B99F21E51F8222012920B99B21E51F8222013920B9A731E42
:2062200052F8235007E01195EED0022E1295F0D0012E1395F2D0396814950D690DA8FFF7BB
:2062400029FF032D13DD0D9A2B1F52F8233015930D9AEB1E52F8233016930D9AAB1E52F810
:20626000233017930D9B013D53F8253009E04FF001031593ECD0022D1693EED0012D17939D
:20628000F0D0216818930D690FA8FFF703FF032D13DD0F9A2B1F52F8233019930F9AEB1ED7
:2062A00052F823301A930F9AAB1E52F823301B930F9B013D53F8253009E04FF00103199377
:2062C000ECD0022D1A93EED0012D1B93F0D01C930020CDE9018A099B0899CDF8009011AA67
:2062E00042F0F5FE054600283FF475AF47F075FE0B46134902460391592102910E490220F6
:2063000001910E49049500912AF030FA0123CBF8083060E793870502468705026D870502D0
:20632000D987050216880502EF870502838805025C8805024D890502828905028E890502CA
:206340009D89050230B50369054699420C4689B001DA002917DA47F040FE0D4A07942B691E
:2063600003928822013B06930A4B05930A4BCDE901320493094B0246009303200B462AF08A
:20638000F5F947F027FE036853F8210009B030BD717F05025A7F050205FE0502E07F0502EF
:2063A00010B5046888B02369042B1ED101212046FFF7C8FF012831D002212046FFF7C2FF1B
:2063C000012805D103212046FFF7BCFF012825D0134B0793636853B10422013B07A911F883
:2063E000010B13F8014F844215D0002016E047F0F4FD0C4A0C4B0392562205930B4BCDE9EF
:20640000013204930A4B0246009303200B462AF0ADF947F0DFFD013AE1D1012008B010BDA8
:2064200000020301A0700502C4700502E3700502EC7005022DE9F04F0D46A1B00AA981E832
:206440000C002C9B064608932B68DDF8B88093F91C20012A05D1D8F8002092F91C20012A37
:206460001DD047F0BAFD0B46D8F80010024691F91C100591296891F91C100491484903917B
:2064800020210291474902200191474900912AF06DF91223B360404621B0BDE8F08FD3F8B5
:2064A00010B00BF1FF33032B0BD947F096FD0B46042104913D4902460391CDF814B02B21D0
:2064C000DFE73B4C0CAF94E80F0087E80F002846DDF828A0DDF8A890FFF762FF10340DF1FA
:2064E000400C079094E80F008CE80F00CBF104032C680CEB830507EB83030027079A394616
:206500000AB153F8271020460993FFF71BFF01375F45099B45F8040BF0D1109BD8F8001014
:206520001493119B9DF920201593129B1693139B1793DAF800301893DAF808301993DAF8A7
:2065400010301A93DAF818301B93D9F800301C93D9F808301D93D9F810301E93D9F8183042
:206560001F931CAB019318AB0093E068C96814AB43F0F3FC044600288DD047F02EFD0B46DC
:206580000C4902460391582102910649022001910549049400912AF0E9F801237AE700BF05
:2065A000D18905020D8A0502158A0502208A0502A0370502538A05022DE9F04709681846A7
:2065C00091F91C301446012B88B013D047F005FD6B4A6C4B0392322205936B4B0493CDE91B
:2065E00001326A4B0246009303200B462AF0BEF847F0F0FC036893F91C20012A09D047F003
:20660000ECFC634B634A05935F4B039204933522E5E7226892F91C50012D09D047F0DDFC0E
:206620005D4B5E4A0593584B039204933822D6E75569B5F5807F17D047F0CFFC23685B69ED
:20664000DA17CDE90632564A564B03923B2205934D4BCDE9013204934C4B024600930320E3
:206660000B462AF083F8C3E74C695D69A54209D047F0B3FC4C4B4D4A0593434B03920493E9
:206680003F22ACE7D5680022CF684FF080081146DB68E61712F10F0E41F1000CA6457CEB62
:2066A000060C2BDBE143C90FC1B324F00F014FEAE47CCA1C4CF1000907EB010803EB010E71
:2066C000A24279EB060A08F104080EF1040E27DB8C4276EB0C02ACBF0122002244DB621AC2
:2066E00066EB0C0E22F0030252184CEB0E0CA2427CEB06013ADB08B0BDE8F08707EB020C22
:206700009CED007E07EE486F95FC064E03EB020C10328CED005E41F10001BBE78C46C8E776
:2067200018F804AC04328AF0800A15F90AA049F100090EF804AC18F803AC8AF0800A15F9DD
:206740000AA00EF803AC18F802AC8AF0800A15F90AA00EF802AC18F801AC8AF0800A15F9DD
:206760000AA00EF801ACABE79646BDE7B95C81F080016956995401324CF1000CB7E700BF1E
:20678000388C0502F78B05021F8C0502878C0502A38C0502C98C0502198D05023F8D0502C7
:2067A0009F8D05028C8D0502FF8D05021C8E050230B50369054699420C4689B001DA00293C
:2067C00017DA47F00AFC0D4A07942B6903928822013B06930A4B05930A4BCDE9013204932F
:2067E000094B0246009303200B4629F0BFFF47F0F1FB036853F8210009B030BD717F050288
:206800005A7F050205FE0502E07F05027FB50A680B69C0E90023A2B99BB147F0DEFB0A4A37
:206820000A4B039256220593094BCDE901320493084B0246009303200B4629F097FF47F002
:20684000C9FB07B05DF804FBA0700502C4700502E3700502EC7005022DE9F0411E4610F1AE
:2068600000438AB041F1000305460F461446DDF84080BBB147F0B1FB164A174B03925222BD
:206880000593CDE90857154BCDF818800493CDE90132134B0246009303200B4629F066FFE3
:2068A00047F098FB1F3246F100033F2A73F100030DD347F092FB0B4B0B4A0593074B0392E5
:2068C000CDE908465922CDF818800493DFE70AB0BDE8F081068F0502828E0502E98E05027E
:2068E000D98705025F8F05027B8F05022DE9F04FA7B0309BDDF8D0900F93319B14921593C3
:20690000DDE932B31693369B13901093389B0F460D93399B17933A9B0E933B9B18933C9BF8
